{
  "contractName": "Voting",
  "abi": [
    {
      "inputs": [],
      "stateMutability": "nonpayable",
      "type": "constructor"
    },
    {
      "anonymous": false,
      "inputs": [
        {
          "indexed": true,
          "internalType": "address",
          "name": "creator",
          "type": "address"
        }
      ],
      "name": "Proposalcreated",
      "type": "event"
    },
    {
      "anonymous": false,
      "inputs": [
        {
          "indexed": true,
          "internalType": "address",
          "name": "Voter",
          "type": "address"
        }
      ],
      "name": "Vote",
      "type": "event"
    },
    {
      "inputs": [
        {
          "internalType": "uint256",
          "name": "",
          "type": "uint256"
        }
      ],
      "name": "Proposals",
      "outputs": [
        {
          "internalType": "string",
          "name": "title",
          "type": "string"
        },
        {
          "internalType": "uint256",
          "name": "id",
          "type": "uint256"
        },
        {
          "internalType": "uint256",
          "name": "votecount",
          "type": "uint256"
        },
        {
          "internalType": "address",
          "name": "proposedby",
          "type": "address"
        }
      ],
      "stateMutability": "view",
      "type": "function",
      "constant": true
    },
    {
      "inputs": [
        {
          "internalType": "string",
          "name": "_title",
          "type": "string"
        }
      ],
      "name": "addproposal",
      "outputs": [],
      "stateMutability": "nonpayable",
      "type": "function"
    },
    {
      "inputs": [],
      "name": "gettotalProposal",
      "outputs": [
        {
          "internalType": "uint256",
          "name": "",
          "type": "uint256"
        }
      ],
      "stateMutability": "view",
      "type": "function",
      "constant": true
    },
    {
      "inputs": [
        {
          "internalType": "uint256",
          "name": "id",
          "type": "uint256"
        }
      ],
      "name": "getProposal",
      "outputs": [
        {
          "internalType": "string",
          "name": "title",
          "type": "string"
        },
        {
          "internalType": "uint256",
          "name": "Id",
          "type": "uint256"
        },
        {
          "internalType": "uint256",
          "name": "votecount",
          "type": "uint256"
        },
        {
          "internalType": "address",
          "name": "proposedby",
          "type": "address"
        }
      ],
      "stateMutability": "view",
      "type": "function",
      "constant": true
    },
    {
      "inputs": [
        {
          "internalType": "uint256",
          "name": "id",
          "type": "uint256"
        }
      ],
      "name": "vote",
      "outputs": [],
      "stateMutability": "nonpayable",
      "type": "function"
    },
    {
      "inputs": [
        {
          "internalType": "uint256",
          "name": "proposalId",
          "type": "uint256"
        },
        {
          "internalType": "address",
          "name": "voterAddress",
          "type": "address"
        }
      ],
      "name": "hasvoted",
      "outputs": [
        {
          "internalType": "bool",
          "name": "",
          "type": "bool"
        }
      ],
      "stateMutability": "view",
      "type": "function",
      "constant": true
    }
  ],
  "bytecode": "0x6080604052600060025534801561001557600080fd5b50336000806101000a81548173ffffffffffffffffffffffffffffffffffffffff021916908373ffffffffffffffffffffffffffffffffffffffff160217905550610a10806100656000396000f3fe608060405234801561001057600080fd5b50600436106100625760003560e01c80630121b93f146100675780634c50d2fb146100955780635026ceee146100f9578063b98d72b914610117578063c7f758a8146101d2578063d1dbe7d8146102a4575b600080fd5b6100936004803603602081101561007d57600080fd5b8101908080359060200190929190505050610376565b005b6100e1600480360360408110156100ab57600080fd5b8101908080359060200190929190803573ffffffffffffffffffffffffffffffffffffffff16906020019092919050505061045e565b60405180821515815260200191505060405180910390f35b6101016104d9565b6040518082815260200191505060405180910390f35b6101d06004803603602081101561012d57600080fd5b810190808035906020019064010000000081111561014a57600080fd5b82018360208201111561015c57600080fd5b8035906020019184600183028401116401000000008311171561017e57600080fd5b91908080601f016020809104026020016040519081016040528093929190818152602001838380828437600081840152601f19601f8201169050808301925050505050505091929192905050506104e6565b005b6101fe600480360360208110156101e857600080fd5b8101908080359060200190929190505050610706565b60405180806020018581526020018481526020018373ffffffffffffffffffffffffffffffffffffffff168152602001828103825286818151815260200191508051906020019080838360005b8381101561026657808201518184015260208101905061024b565b50505050905090810190601f1680156102935780820380516001836020036101000a031916815260200191505b509550505050505060405180910390f35b6102d0600480360360208110156102ba57600080fd5b810190808035906020019092919050505061080a565b60405180806020018581526020018481526020018373ffffffffffffffffffffffffffffffffffffffff168152602001828103825286818151815260200191508051906020019080838360005b8381101561033857808201518184015260208101905061031d565b50505050905090810190601f1680156103655780820380516001836020036101000a031916815260200191505b509550505050505060405180910390f35b600180828154811061038457fe5b90600052602060002090600502016002016000828254019250508190555060018082815481106103b057fe5b906000526020600020906005020160040160003373ffffffffffffffffffffffffffffffffffffffff1673ffffffffffffffffffffffffffffffffffffffff16815260200190815260200160002060000160006101000a81548160ff0219169083151502179055503373ffffffffffffffffffffffffffffffffffffffff167ff5b08346e1e6b0b55d07ce94e81fcb198d47fbbecfea3b9a476f454c86761ec460405160405180910390a250565b6000806001848154811061046e57fe5b906000526020600020906005020190508060040160008473ffffffffffffffffffffffffffffffffffffffff1673ffffffffffffffffffffffffffffffffffffffff16815260200190815260200160002060000160009054906101000a900460ff1691505092915050565b6000600180549050905090565b60008054906101000a900473ffffffffffffffffffffffffffffffffffffffff1673ffffffffffffffffffffffffffffffffffffffff163373ffffffffffffffffffffffffffffffffffffffff16146105a7576040517f08c379a000000000000000000000000000000000000000000000000000000000815260040180806020018281038252601f8152602001807f4f6e6c79206f776e65722063616e20616464207468652070726f706f73616c0081525060200191505060405180910390fd5b6105af6108ff565b818160000181905250600081604001818152505033816060019073ffffffffffffffffffffffffffffffffffffffff16908173ffffffffffffffffffffffffffffffffffffffff16815250506002548160200181815250506001819080600181540180825580915050600190039060005260206000209060050201600090919091909150600082015181600001908051906020019061064f92919061093d565b50602082015181600101556040820151816002015560608201518160030160006101000a81548173ffffffffffffffffffffffffffffffffffffffff021916908373ffffffffffffffffffffffffffffffffffffffff16021790555050506002600081548092919060010191905055503373ffffffffffffffffffffffffffffffffffffffff167f8182d15dfcb18655ced04229b565a1b9c4f78c023d73ac8b80c38fd2406293f660405160405180910390a25050565b60606000806000806001868154811061071b57fe5b9060005260206000209060050201905080600001816001015482600201548360030160009054906101000a900473ffffffffffffffffffffffffffffffffffffffff16838054600181600116156101000203166002900480601f0160208091040260200160405190810160405280929190818152602001828054600181600116156101000203166002900480156107f35780601f106107c8576101008083540402835291602001916107f3565b820191906000526020600020905b8154815290600101906020018083116107d657829003601f168201915b505050505093509450945094509450509193509193565b6001818154811061081757fe5b9060005260206000209060050201600091509050806000018054600181600116156101000203166002900480601f0160208091040260200160405190810160405280929190818152602001828054600181600116156101000203166002900480156108c35780601f10610898576101008083540402835291602001916108c3565b820191906000526020600020905b8154815290600101906020018083116108a657829003601f168201915b5050505050908060010154908060020154908060030160009054906101000a900473ffffffffffffffffffffffffffffffffffffffff16905084565b6040518060800160405280606081526020016000815260200160008152602001600073ffffffffffffffffffffffffffffffffffffffff1681525090565b828054600181600116156101000203166002900490600052602060002090601f016020900481019282601f1061097e57805160ff19168380011785556109ac565b828001600101855582156109ac579182015b828111156109ab578251825591602001919060010190610990565b5b5090506109b991906109bd565b5090565b5b808211156109d65760008160009055506001016109be565b509056fea2646970667358221220daeeb62dcd7e05165706c111d11b008f4e003fd600393f5c508a542fc6a241b864736f6c634300060c0033",
  "immutableReferences": {},
  "source": "// SPDX-License-Identifier: MIT\npragma solidity ^0.6.4;\ncontract Voting{\n    address Owner;\n  struct Proposal{\n    string title;\n    uint id;\n    uint votecount;\n    address proposedby;\n    mapping(address=>voter) voters;\n  }\n  \n  Proposal [] public  Proposals;\n  \n  struct voter{\n    bool voted;\n  } \n  \n  uint count =0;\n  event Proposalcreated(address  indexed creator);\n  event Vote(address  indexed Voter);\n  \n  modifier onlyowner{\n      require(msg.sender == Owner,\"Only owner can add the proposal\");\n      _;\n  }\n  constructor () public {\n      Owner = msg.sender;\n  }\n  function addproposal(string memory _title) public  onlyowner{\n    Proposal memory p ;\n\n    p.title = _title;\n    p.votecount = 0;\n    p.proposedby = msg.sender;\n    p.id = count;\n    Proposals.push(p);\n    count++;\n\n    emit Proposalcreated(msg.sender);\n\n  }\n  function gettotalProposal() public view returns(uint ){\n       return Proposals.length;\n  }\n  function getProposal( uint id) public view returns(string memory title , uint Id, uint votecount, address proposedby ){\n      Proposal storage p = Proposals[id];\n      return(p.title, p.id, p.votecount, p.proposedby); \n  }\n  \n  function vote(uint id) public{\n    Proposals[id].votecount += 1;\n    Proposals[id].voters[msg.sender].voted = true;\n    emit Vote(msg.sender);\n  }\n  function hasvoted(uint256 proposalId, address voterAddress) public view returns (bool)\n  {\n     Proposal storage p = Proposals[proposalId];\n        return p.voters[voterAddress].voted;\n    \n\n\n  }\n}",
  "sourcePath": "/home/anu/Blockchain/Voting_dapp/contracts/Voting.sol",
  "compiler": {
    "name": "solc",
    "version": "0.6.12+commit.27d51765.Emscripten.clang"
  },
  "schemaVersion": "3.4.0",
  "updatedAt": "2021-06-08T12:58:05.548Z",
  "networkType": "ethereum",
  "devdoc": {
    "kind": "dev",
    "methods": {},
    "version": 1
  },
  "userdoc": {
    "kind": "user",
    "methods": {},
    "version": 1
  }
}